:020000040C00EE
:100000000008001001020008B1020008C50900083C
:10001000FF0A0008CB090008D10900080000000011
:10002000000000000000000000000000B102000815
:10003000B102000800000000B1020008B10200088F
:10004000B1020008B1020008B1020008B1020008C4
:10005000B1020008B1020008B1020008B1020008B4
:10006000B1020008000000000000000000000000D5
:10007000B102000800000000B1020008B10200084F
:10008000B1020008B1020008B1020008B102000884
:10009000B1020008B1020008B1020008B102000874
:1000A000B1020008B1020008B1020008B102000864
:1000B000B1020008B1020008B1020008B102000854
:1000C000B1020008B1020008B1020008B102000844
:1000D000B1020008B1020008B1020008B102000834
:1000E000B1020008B1020008B1020008B102000824
:1000F000B1020008B1020008B1020008B102000814
:10010000B1020008B1020008B1020008B102000803
:10011000B1020008B1020008B1020008B1020008F3
:10012000B1020008B1020008B1020008B1020008E3
:10013000B1020008B1020008B1020008B1020008D3
:10014000B1020008B1020008B1020008B1020008C3
:10015000B1020008B1020008B1020008B1020008B3
:10016000000000000000000000000000000000008F
:10017000B1020008B1020008B1020008B102000893
:10018000B1020008B1020008B1020008B102000883
:10019000B1020008B1020008B1020008B102000873
:1001A000B1020008B1020008B1020008B102000863
:1001B000B1020008B1020008B1020008B102000853
:1001C000B1020008B1020008B1020008B102000843
:1001D000B1020008B1020008B102000800000000EE
:1001E000B1020008B1020008B1020008750700085A
:1001F000B102000800000000B10200080000000089
:10020000DFF88CD023488047234C244DAC4209DAD8
:1002100021686268A368043BA2BFC858D050FAE7BF
:100220000C34F3E71E4B1F4CA34208DA19685A68D6
:100230000020043AA4BF8850FBE70833F4E71A48CB
:1002400080471A48804700000484000C000000200A
:10025000780800007C8C000C0000003000000000DA
:100260000484000C00080010000000000484000C4E
:100270000008001000000000780800203807000087
:1002800000000030000E0000000800100000000018
:1002900000080010556D00084802000878020008A8
:1002A0007802000890020008CD710008C904000817
:1002B000FEE780B483B000AF78600B46FB707B68CC
:1002C000DA68FB78012101FA03F31A437B68DA60EC
:1002D00000BF0C37BD465DF8047B704780B483B027
:1002E00000AF78607B680122DA6000BF0C37BD4642
:1002F0005DF8047B704780B483B000AF78600B4634
:100300007B807A887B685A6300BF0C37BD465DF8F6
:10031000047B704780B483B000AF78600B467B806D
:100320007A887B68DA6300BF0C37BD465DF8047BD2
:10033000704780B483B000AF786039607B683A68FA
:100340001A6100BF0C37BD465DF8047B704780B56D
:1003500086B000AFF860B9607A603B60FB681868EF
:10036000BB681A683B681344194607F0C1FB786103
:100370007B69002B12D0FB687A691A60FB681A68E7
:10038000BB681B6813443A687968184607F058FA46
:10039000BB681A683B681A44BB681A607B691846D8
:1003A0001837BD4680BD80B586B000AFF860B96033
:1003B0007A600023FB82F86803F0C0F903461A460E
:1003C0007B681A607B681B68002B01D1012332E037
:1003D0007B681B680121184606F0BAFE03461A46E0
:1003E000BB681A60BB681B68002B01D1022322E0A6
:1003F0000023BB8219E0F86803F01AFA0346FB8277
:10040000B7F91630002B07DBBB681A68BB8A1344A8
:10041000FA8AD2B21A7005E0BB8A01331A467B68A9
:100420001A6007E0BB8A0133BB82BA8A7B681B680B
:100430009A42E0D3002318461837BD4680BD00001D
:1004400090B591B000AFF860B9607A601D4B1B6841
:10045000FB6307F1140328220021184607F0EEFA87
:1004600000240BE07B681B1B023BBA6813441A781C
:1004700007F14003234403F82C2C01347B68013B33
:10048000A342EFD87B68013B7A68013AB9680A4415
:10049000127807F140010B4403F82C2C7B689AB2C8
:1004A00007F114031946F86803F06EF8034618467E
:1004B000044BFA6B1B689A4201D000F039FB4437B9
:1004C000BD4690BDAC83000890B58DB000AF2C4BFD
:1004D0001B68FB622B4B07F11C040FCB07C4237076
:1004E00000237B600023BB6000F04EF9264803F038
:1004F00025F90346002B19D00023FB6000233B6144
:1005000007F1100207F10C0319461F48FFF74BFFD4
:100510000346002B06D1FA683B6907F10801381D34
:10052000FFF715FFFB68184606F080FEBB68002B3E
:1005300021D07B68BA680A21184607F031F9786142
:100540007B69002B17D07B697A689B1A0133BB61EA
:100550007B68BA6919460C48FFF772FF78687B69B7
:10056000591CBA68BB69D31A1A4607F003FABA686D
:10057000BB69D31ABB60044802F086FFB6E700BF30
:10058000AC830008A08200080800002080B500AFFE
:1005900000211F4805F027FF1E491F4805F079FF7D
:1005A0001C491E4805F075FF4FF400411A48FFF73B
:1005B000B1FE4FF400411948FFF7ACFE4FF6FF7152
:1005C0001548FFF798FE4FF47A411448FFF793FE61
:1005D0004FF488510E48FFF7ACFE114A0021114834
:1005E00005F080FD0E4A01210E4805F07BFD022139
:1005F0000748FFF75EFE03210548FFF75AFE06484D
:10060000FFF76CFE0548FFF769FE00BF80BD00BF25
:1006100000C000400000002000C3004000C40040B3
:10062000948200080081024880B400AF044BDB686C
:100630001B0A03F007031846BD465DF8047B7047AC
:1006400000ED00E080B483B000AF0346FB7197F982
:100650000730002B0BDB094997F907305B09FA7962
:1006600002F01F02012000FA02F241F8232000BF2D
:100670000C37BD465DF8047B704700BF00E100E029
:1006800080B483B000AF0346FB7197F90730002BAD
:100690000CDB094997F907305B09FA7902F01F0270
:1006A000012000FA02F2603341F8232000BF0C372A
:1006B000BD465DF8047B704700E100E080B483B084
:1006C00000AF03463960FB7197F90730002B0ADB56
:1006D0000D4997F907303A68D2B29200D2B20B4472
:1006E00083F800230AE00949FB7903F00F03043B78
:1006F0003A68D2B29200D2B20B441A7600BF0C37DD
:10070000BD465DF8047B704700E100E000ED00E0CD
:1007100080B489B000AFF860B9607A60FB6803F01C
:1007200007037B617B69C3F10703062B28BF062300
:10073000BB617B690633062B02D97B69013B00E074
:100740000023FB610122BB6902FA03F35A1EBB6856
:100750001A40FB699A400121FB6901FA03F3591E13
:100760007B680B40134318462437BD465DF8047B75
:100770007047000080B500AF024801F08BFD00BF5C
:1007800080BD00BF2800002080B500AF114800F0F8
:1007900093FEFFF749FF034600223F211846FFF76B
:1007A000B7FF034619466B20FFF788FF6B20FFF762
:1007B00067FF6B20FFF746FF074B4FF416529A6115
:1007C000054B08229A77054B1B68DB68984700BFEA
:1007D00080BD00BF2800002008000020B00B0020D2
:1007E00080B400AF00BFBD465DF8047B704780B4A5
:1007F00000AF00BFBD465DF8047B704780B500AF19
:10080000094B93F83E3103F00103DBB2002B08D013
:10081000FFF7BAFF044A92F83E316FF3000382F803
:100820003E3100BF80BD00BFB00B002080B500AFDF
:1008300040220D49812000F0B5FE40220B49822064
:1008400000F0B0FE40220A49032000F0ABFE094848
:1008500002F0D6FD084A92F83E3143F0010382F8D7
:100860003E3100BF80BD00BF30090020700900206C
:10087000F008002008000020B00B002080B500AF79
:10088000024802F0BDFC00BF80BD00BF0800002090
:1008900080B400AF00BFBD465DF8047B704780B4F4
:1008A00000AF00BFBD465DF8047B704780B400AF69
:1008B00000BFBD465DF8047B7047000080B485B082
:1008C00000AF03463A60FB800B467B71FB881B0A36
:1008D0009BB23B72FB887B720023FB6000237B8111
:1008E0003B7A022B08D0032B0BD0012B21D1164BC6
:1008F000FB6012237B811CE0144BFB603E237B8159
:1009000017E07B7A012B09D0022B0CD0002B00D0F2
:100910000EE00F4BFB6004237B8109E00D4BFB6075
:1009200058237B8104E00C4BFB6020237B8100BFBC
:1009300000BF3B68FA681A607B8918461437BD46C9
:100940005DF8047B704700BFB0820008C4820008D5
:10095000048300080C8300086883000880B584B015
:1009600000AF154803F028FE04F0ECFA4021022005
:1009700004F00CFB042004F023FA002004F028F912
:10098000012004F077FA06F033FB0C4A0B4B1B688E
:1009900043F4400313600A4A3B1D07CA83E807007B
:1009A0003B1D93E8070000F04BF8012000F013F81E
:1009B00000BF1037BD4680BD8C83000818820248F6
:1009C000A083000880B400AFFEE780B400AFFEE76C
:1009D00080B400AFFEE780B483B000AF7860BFF3AF
:1009E0004F8FBFF36F8F4FF0E0214FF0E023D3F82C
:1009F000942D7B68002B01D0052300E001231343D5
:100A0000C1F8943DBFF34F8FBFF36F8F00BF0C371A
:100A1000BD465DF8047B704780B400AFBFF34F8FD5
:100A2000BFF36F8F4FF0E0230022C3F8942DBFF384
:100A30004F8FBFF36F8F00BFBD465DF8047B7047DB
:100A400080B487B000AF3B1D83E807003B7B092BD8
:100A500038BF0923BB757B68B3F1805F0DD37B681A
:100A6000B3F1804F07D37B68B3F1C04F01D20523A8
:100A700004E0072302E0062300E00223FB754FF0A9
:100A8000E0227B7B03F00703C2F8983D4FF0E022A1
:100A90004FF0E023D3F8A03D23F00103C2F8A03DBE
:100AA0004FF0E0217B681A46BB7DDA40BB7D02FA3D
:100AB00003F3C1F89C3D4FF0E021BB681B0603F037
:100AC000B853FA7D12041A433B7B002B05D03B7BC5
:100AD000013B5B0003F03E0303E03B7B5B0003F064
:100AE0003E031A43BB68DB1103F001031343C1F853
:100AF000A03D00BF1C37BD465DF8047B704780B445
:100B000085B000AF4FF0E023D3F8283DFB7197F993
:100B10000730002B04DA4FF0E023D3F8343D00E037
:100B20000023BB600023FB60FEE784B000BD000033
:100B300080B400AFBFF34F8F0549054BDB6803F46A
:100B4000E062044B1343CB60BFF34F8F00BFFDE760
:100B500000ED00E00400FA0580B500AF084B1B680B
:100B60005B6A012180209847054B012283F83B21D5
:100B7000034B1B689B6A18210020984700BF80BD6B
:100B8000B00B002080B586B000AF00233B6100238E
:100B90003B81AB4B5B889BB2FB71FFF76FFEA94BB0
:100BA00093F83E31C3F34003DBB2002B00F0FD812C
:100BB000A34B5B780C2B00F2EA8101A252F823F0E0
:100BC000390D0008F50B00088F0F0008C30E000850
:100BD0008F0F00081D0E00089B0C0008890E0008EE
:100BE0008B0C0008510E0008010D00088F0E000844
:100BF000890F0008924B1B7803F00303022B33D1BB
:100C00008F4B9B889BB203F00F037B818E4B1B782D
:100C1000DBB2042B04D08A4B9B889BB2002B20D1E3
:100C20007B89884A2C2101FB03F313441B7AC3F30D
:100C30000003DBB2012B14D17B89824A2C2101FBFA
:100C400003F31A44137A6FF3820313727D4B1B680C
:100C50005B6A7B4A928892B2D2B2002110469847D2
:100C60009BE1FFF779FF98E1754B1B7803F00303D5
:100C7000002B07D1734A92F83E316FF3820382F85A
:100C80003E318AE1FFF768FF87E16E4B1B681B6B03
:100C900001226E49002098477FE1694B5B8898B23A
:100CA000674B9B889BB2DBB207F10C021946FFF73A
:100CB00005FE03463B613B69002B02D1FFF74CFF69
:100CC0006BE15F4BDB889BB21A463B69934228BFBE
:100CD00013463B615B4B1B681B6BF9683A6900204C
:100CE000984703467B613A697B69D31A554A9362F8
:100CF000FB681A467B6913441A46524BDA624CE190
:100D0000514B1B78DBB2042B0DD14E4B1B681B6B78
:100D10004B4A928892B202F59C724A4911440122D0
:100D20000020984739E1484B1B78DBB2032B40F099
:100D30003181FFF711FF30E1414B1B7803F00303D2
:100D4000002B1BD13F4B93F83E31C3F38003DBB242
:100D50005B001AB23B4B93F83E31C3F3C003DBB2E6
:100D60001BB213431BB29BB23B81364B1B681B6B00
:100D700007F108010222002098470EE1304B1B7852
:100D800003F00303012B0FD12F4B1B78DBB2042B95
:100D90000AD100233B812B4B1B681B6B07F1080119
:100DA000022200209847F8E0254B1B7803F003034C
:100DB000022B30D1224B9B889BB203F00F037B8127
:100DC000214B1B78DBB2042B04D01D4B9B889BB2BC
:100DD000002B20D17B891B4A2C2101FB03F31344F8
:100DE0001B7AC3F30003DBB2012B14D17B89154AB4
:100DF0002C2101FB03F313441B7AC3F38003DBB202
:100E00009BB23B810F4B1B681B6B07F10801022251
:100E100000209847C1E0FFF79FFEBEE0FB79002B62
:100E200003D1094B02221A7002E0074B03221A7009
:100E3000044B1B689B69FA79002110469847ACE087
:100E4000000F0020B00B0020FD0E0020E90C002058
:100E5000584AFB7982F83931FFF7E8FCFB79002B1F
:100E600003D1554B03221A7097E0524B93F83E3151
:100E700003F00103DBB2002B03D04F4B04221A70A6
:100E80008BE0FFF769FE88E0FFF766FE85E04A4BDE
:100E90001B78DBB2042B0CD1484B9B889BB21946C4
:100EA000464B5B889BB2DAB2424B0B4483F8382145
:100EB00073E0414B1B78DBB2032B6DD1FFF74CFE87
:100EC0006BE0FB79022B02D1FFF746FE65E03A4B5F
:100ED0001B78DBB2042B38D1FB79002B0AD0012B15
:100EE00000D05AE0334A92F83E3143F0040382F8CE
:100EF0003E3129E0314B9B889BB203F00F037B818D
:100F00007B892C4A2C2101FB03F313441B7AC3F386
:100F10000003DBB2002B02D1FFF71EFE13E07B893A
:100F2000244A2C2101FB03F31A44137A43F00403EF
:100F30001372204B1B685B6A204A928892B2D2B22D
:100F400001211046984700BF27E01B4B1B78DBB2FE
:100F5000032B16D1FB79002B13D1184B1B7803F010
:100F60000303022B0DD1154B9B889BB2DBB2002BE8
:100F700007D1104A137A43F004031372FFF7ECFD14
:100F80000BE0FFF7E9FD08E0FFF7E6FD05E0FFF7FE
:100F9000E3FD02E000BF00E000BF064A92F83E31E8
:100FA0006FF3410382F83E3100E000BF1837BD46C1
:100FB00080BD00BFB00B0020FD0E0020000F002000
:100FC00080B500AF104B93F83B31022B09D10E4B8B
:100FD0001B689B6A0021002098470B4B052283F871
:100FE0003B21094B93F83B31032B0BD1064B1B687C
:100FF0009B6A054A1279182110469847024B012234
:1010000083F83B2100BF80BDB00B002080B500AF4E
:10101000124B93F83B31042B0CD1FFF7B3FD0F4B70
:101020001B681B6B00220021002098470B4B0322FA
:1010300083F83B21094B93F83B31052B0BD1074B30
:101040001B689B6A054A1279182110469847034B82
:10105000012283F83B2100BF80BD00BFB00B002000
:1010600080B582B000AF214B1B68DB6A08222049A3
:101070000020984778601D4A92F83E3143F0020301
:1010800082F83E317B68082B2CD1194BDB889BB250
:10109000002B0DD1154B032283F83B21FFF772FD86
:1010A000124B1B681B6B00220021002098471AE09E
:1010B0000F4B1B785BB2002B06DA0C4B022283F835
:1010C0003B21FFF75FFD0EE0084B042283F83B2134
:1010D000064B1B689B6A064AD28892B211460020D2
:1010E000984700E000BF0837BD4680BDB00B002028
:1010F000000F002080B584B000AF0346FB71FB7980
:10110000092B00F2FD8001A252F823F063120008BF
:10111000511200083F12000845120008351100085E
:1011200001130008E9120008D91200080113000891
:1011300039120008744B02221A70744B012283F892
:101140003B21724A92F83E316FF3820382F83E31BE
:101150000023FB6050E06D4AFB682C2101FB03F388
:101160001A4413896FF304131381684AFB682C2116
:1011700001FB03F31A4413896FF3C3031381634A1A
:10118000FB682C2101FB03F31A44137A6FF38203EB
:101190001372FB68002B2CD05C4AFB682C2101FBEE
:1011A00003F313441B7AC3F30003DBB2002B20D0FC
:1011B000564B1B681B6A5549FA682C2000FB02F24B
:1011C0000A440432127810469847504AFB682C2192
:1011D00001FB03F31A44137A6FF3000313724B4AB3
:1011E000FB682C2101FB03F31A44137A6FF34103CC
:1011F0001372FB680133FB60FB68062BABDD434BCE
:10120000002283F839210023FB6009E03F4AFB6894
:10121000134403F59C7300221A70FB680133FB60D2
:10122000FB68002BF2DD394B1B689B6A374A127949
:1012300018211046984764E0FFF72AFB61E0FFF7AA
:10124000CFFA5EE0304B01221A70FFF7D0FA58E077
:101250002D4B00221A702D4B1B681B6A00209847EB
:101260004FE0294B01221A704FF4A0720021274849
:1012700006F0E4FB254B264A1A60244B012283F832
:101280003B21224B234A1A62204B4FF480725A6250
:101290001E4B214A5A611D4B4FF480729A611B4AC2
:1012A00013796FF3C7131371184A137A43F00103CC
:1012B0001372164A137A43F002031372134A138906
:1012C000402161F38C131381104B1B68DB694022B2
:1012D00000210020984714E00C4B93F83A210A4B68
:1012E0001A70FFF7DCFA0CE0074B1B78DAB2074BF9
:1012F00083F83A21044B05221A70FFF7D7FA00E071
:1013000000BF1037BD4680BDFD0E0020B00B002091
:10131000B0830008B0090020B00A002080B586B074
:1013200000AF03460A46FB711346BB71FB7903F01D
:101330000F032C2202FB03F35D4A134404333B6189
:101340005B4B93F83C31BB73594B93F83D31FB73C6
:10135000FB7903F00F03DAB2554B83F83C21FB799C
:1013600023F07F03DAB2524B83F83D21BB79012B86
:1013700013D0022B3AD0002B40F08E803A6993882C
:101380006FF3C30393804A4B93F83C31002B00D09A
:1013900002E0FFF765FE00BF7EE03A69938843F004
:1013A000200393803B699B68002B10D13B6900228E
:1013B000DA603F4B1B68DB6A3A6910783A69116959
:1013C0003A695269984703461A463B699A603A69F6
:1013D00093886FF3C3039380354B93F83C31002B14
:1013E00000D002E0FFF712FE00BF55E03B695B6AE8
:1013F000002B17D02E4B1B681B6B3A6910783A698B
:10140000916A3A69526A984778613B695A6A7B697E
:10141000D21A3B695A623B699A6A7B691A443B69F2
:101420009A6241E03B691B7803F00F03DBB2002BAB
:1014300020D13B699B69002B1CD03B699B691D4AED
:10144000D28892B2934215D03B699B693A699288DF
:10145000C2F38612D2B2B3FBF2F102FB01F29B1A85
:10146000002B07D1124B1B681B6B3A6910780022C6
:10147000002198473B6900229A613A6993886FF38B
:10148000041393800A4B93F83C31002B00D002E008
:10149000FFF796FD00BF00BF054ABB7B82F83C31D9
:1014A000034AFB7B82F83D311837BD4680BD00BF43
:1014B000B00B0020000F002080B584B000AF786032
:1014C0000023FB604FF4A0720021294806F0B6FA11
:1014D000284B00221A70264B274A1A60244B0122FF
:1014E00083F83B21224B254A1A62214B4FF480722C
:1014F0005A621F4B224A5A611D4B4FF480729A6107
:101500001B4A13796FF3C7131371194A137A43F007
:1015100001031372164A137A43F002031372144A3A
:101520001389402161F38C131381114B1B685B6895
:10153000786898470346FB60FB68002B02D04FF0A9
:10154000FF3311E00A4B1B68DB69402200210020B9
:101550009847FB68002B06D0054B1B689B68984793
:101560004FF0FF3300E0002318461037BD4680BD22
:10157000B00B0020FD0E0020B0830008B009002051
:10158000B00A002080B500AF054B1B68DB6B9847A5
:101590000346002B01D0012300E00023184680BD44
:1015A000B00B002080B485B000AF03463960FB71FA
:1015B0001346BB80FB7903F00F03FB7397F90730E9
:1015C000002B12DAFB7B154A2C2101FB03F3134499
:1015D00020333A681A60FB7BBA8810492C2000FB44
:1015E00003F30B4424331A6011E0FB7B0B4A2C21DC
:1015F00001FB03F3134414333A681A60FB7BBA8887
:1016000006492C2000FB03F30B4418331A6000BF7B
:101610001437BD465DF8047B704700BFB00B002057
:1016200080B485B000AF78600023FB730023BB73E8
:101630001CE0BB7B134A342101FB03F313445B68BA
:10164000C3F3C003DBB2002B0BD1BB7B0D4A3421AB
:1016500001FB03F313445B68C3F30013DBB2002BFD
:1016600001D00123FB73BB7B0133BB737B681B7B06
:10167000BA7B9A42DDD3FB7B18461437BD465DF832
:10168000047B7047F40C002080B48BB000AF78600E
:1016900039607B68342202FB03F3344A13447B61D4
:1016A000324BD3F8E031BB61304A7B6870339B002A
:1016B00013445B681B68FB603B689B08FB61FB692C
:1016C0009B003B627B7B23F07F03DBB2002B47D088
:1016D0007B695B6A002B43D000233B610AE07B6996
:1016E0005A6A3B699B001344BA6912681A603B69E5
:1016F00001333B613A69FB699A42F0D33A683B6A2D
:101700009A4221D0BB691B687B6200233B6115E0D4
:101710007B695A6AFB6999003B690B4413443A6937
:10172000D200FF2191407A6A11403A69D20021FA31
:1017300002F2D2B21A703B6901333B613A6A3B69EB
:101740001A443B689A42E3D37B69DA6A3B681A44DD
:101750007B69DA627B695A6A3B681A447B695A6220
:1017600000BF2C37BD465DF8047B7047F40C0020A9
:1017700080B489B000AF78607B681B78C3F3030343
:10178000DBB2234A783352F82330FB617B681B7845
:10179000C3F30303DBB21E4A6A3352F823309B695A
:1017A000BB607B689A6A7B68DB6AD31AFB60FB6864
:1017B000002B02D100237B6123E0FB6803339B08ED
:1017C0003B613B891A463B699A4204D23B893B61A3
:1017D0003B699B00FB600023BB610CE07B685B6A9C
:1017E0001A68FB691A60BB690133BB617B685B6A7D
:1017F0001A1D7B685A62BA693B699A42EED3FB684C
:101800007B617B6918462437BD465DF8047B7047D1
:10181000F40C002080B485B000AF0346FB710023B8
:10182000BB60BB6843F02003BB60FB7903F01F0380
:10183000DAB2BB6862F38A13BB60144BD3F8A031F1
:10184000BA681A610023FB6002E0FB680133FB60A9
:10185000FB68B3F57A7FF8D30C4BD3F8A0311B6942
:10186000BB60BB68C3F34013DBB2002BF4D1002391
:10187000FB6000BFFB685A1CFA60B3F57A7FF9D3AE
:1018800000BF1437BD465DF8047B7047F40C0020A0
:1018900080B483B000AF00233B603B6843F010038B
:1018A0003B60144BD3F8A0313A681A6100237B6087
:1018B00002E07B6801337B607B68B3F57A7FF8D305
:1018C0000C4BD3F8A0311B693B603B68C3F300139A
:1018D000DBB2002BEAD100237B6000BF7B685A1C7F
:1018E0007A60B3F57A7FF9D300BF0C37BD465DF857
:1018F000047B7047F40C002080B483B000AF012358
:10190000FB8000233B7100237B7105E0FB885B00BB
:10191000FB803B7901333B713B79062B07D8114B98
:10192000B3F8FC21FB8813409BB2002BEED10D4B8A
:10193000B3F8FC21FB8813409BB2002B0AD1094B62
:10194000B3F8FC21FB8813439AB2064BA3F8FC21A1
:101950003B797B717B7918460C37BD465DF8047B7B
:10196000704700BFF40C002080B483B000AF034682
:10197000FB710A4BB3F8FC21FB79012101FA03F357
:101980009BB2DB439BB213409AB2044BA3F8FC21F9
:1019900000BF0C37BD465DF8047B7047F40C002097
:1019A00080B487B000AF78600023FB607B681A6B5F
:1019B0007B689B6AD31A7A689268C2F312029342D8
:1019C00009D97B689B6A7A689268C2F312021A444A
:1019D0007B689A6203E07B681A6B7B689A627B681B
:1019E0001B7803F00F03DBB2002B19D107F10C03B6
:1019F0007B617A699378012161F3C40393707A69FA
:101A0000D37843F06003D3707B681B6BDBB203F0C9
:101A10007F03D9B27A69137861F30603137033E058
:101A20007B689B6A002B09D1FB686FF31203FB6094
:101A3000FB89012262F3CC03FB8125E07B689A6A73
:101A40007B68DB6AD31A7A685268C2F3C622D2B2C4
:101A50001344013B7A685268C2F3C622D2B2B3FB88
:101A6000F2F39BB2C3F309039AB2FB8962F3CC038E
:101A7000FB817B689A6A7B68DB6AD31AC3F3120224
:101A8000FB6862F31203FB60214B1B685B7B002B3E
:101A90000CD17B681B78C3F30303DBB21D4A7033A0
:101AA0009B0013445B687A68526A5A617B681B78B2
:101AB000C3F30303DBB2174A70339B0013445B6824
:101AC000FA681A617B681B78C3F30303DBB2114A1F
:101AD00070339B0013445B681B683B61FB7C43F0E5
:101AE0000403FB74FB7C43F08003FB747B681B786E
:101AF000C3F30303DBB2074A70339B0013445B68F4
:101B00003A691A6000BF1C37BD465DF8047B704718
:101B1000F00C0020F40C002080B485B000AF786099
:101B20000023BB607B681B78C3F30303DBB25E4A10
:101B30006A3352F823301B68FB607B681A6B7B6842
:101B40009B6AD31A7A689268C2F31202934204D253
:101B50007B681A6B7B689A6208E07B689B6A7A688C
:101B60009268C2F312021A447B689A627B689B6A8D
:101B7000002B09D1BB686FF31203BB607B89012284
:101B800062F3CC037B816AE07B681B7803F00F0370
:101B9000DBB2002B10D17B89012262F3CC037B8165
:101BA0007B689A6A7B68DB6AD31AC3F31202BB684C
:101BB00062F31203BB602BE07B689A6A7B68DB6A86
:101BC000D31AC3F31202BB6862F31203BB607B68D3
:101BD0009B6A9AB27B68DB6A9BB2D31A9BB21A46A5
:101BE0007B685B68C3F3C623DBB29BB2013B9BB24D
:101BF00013447A685268C2F3C622D2B293FBF2F35E
:101C00009BB2C3F309039AB27B8962F3CC037B8155
:101C1000264B1B685B7B002B0BD17B681B78C3F3C7
:101C20000303DBB2204A6A3352F823307A68526ADF
:101C30005A611E4B1B685B7B012B10D11A4BD3F8EA
:101C4000A431194AD2F8A421516B7A681278C2F3F0
:101C50000302D2B21046012282400A435A637B68D3
:101C60001B78C3F30303DBB20F4A6A3352F8233005
:101C7000BA681A61FB7B43F08003FB73FB7B43F084
:101C80000403FB737B681B78C3F30303DBB2064AD0
:101C90006A3352F82330FA681A6000BF1437BD4621
:101CA0005DF8047B704700BFF40C0020F00C0020AE
:101CB00080B588B000AF7860504BD3F8A4315B6832
:101CC000FB603B7B43F001033B734C4BD3F8A431E7
:101CD000FA685A600023FB611AE0484AFB697033D6
:101CE0009B0013445B681B68BB60FB7A43F00803EE
:101CF000FB72BB7A6FF34513BB72404AFB697033CA
:101D00009B0013445B68BA681A60FB690133FB618E
:101D1000FB69062BE1D9394BD3F8A03140225A6236
:101D200000233B6110237B8240233B82334BD3F85B
:101D3000A0313A699A620123FB6111E02F4BD3F87D
:101D4000A011FB69013BFA6904329201920842F446
:101D5000801240339B000B445A60FB690133FB61E6
:101D6000FB69062BEAD91020FFF754FD0020FFF78E
:101D700051FDFFF78DFD00237B613B7D43F00103A7
:101D80003B75BB7D43F00103BB751C4BD3F8A431FD
:101D90007A69DA610F2000F0E9FB0F2000F0FEFB0A
:101DA000164BD3F8A4311B68BB613B8B6FF30A134E
:101DB0003B83124BD3F8A431BA691A607B685B7B12
:101DC000012B04D10D4BD3F8A43100225A630B4AE6
:101DD00053686FF304135360084A53686FF3C303E7
:101DE0005360064BD3F8003204209847042000F0DB
:101DF00011FB00BF2037BD4680BD00BFF40C0020A2
:101E000080B582B000AF0F4BD3F8A0315B687B6028
:101E10003B7903F00403DBB2002B0BD0094A92F8A4
:101E2000FE316FF3820382F8FE31064BD3F80032A5
:101E3000012098477B68184600F052FB00BF083726
:101E4000BD4680BDF40C002080B582B000AF1B4BB6
:101E5000D3F8A8311B683B603B886FF30A033B80D3
:101E6000164BD3F8A8313A681A60144A92F8FE313A
:101E700043F0010382F8FE31104A92F8FE3143F03C
:101E8000040382F8FE310D4BD3F80032022098474C
:101E90000A4BD3F8A031DB687B607B79092262F3BF
:101EA00085037B71054BD3F8A0317A68DA600B208B
:101EB00000F0B0FA00BF0837BD4680BDF40C00202A
:101EC00080B58CB000AF7860664BD3F8A4319B69C5
:101ED0007B61644BD3F8A431DB69BB61614BD3F800
:101EE000A4315B69FB61FA8A7B8B1340FB81002381
:101EF0007B7300237B62A7E0FA897B7B42FA03F3C2
:101F00003B823B8A03F001037B827B8A002B00F03B
:101F100098807B7B342202FB03F3524A1344BB625A
:101F20007B7B504A70339B0013445B689A68FB6963
:101F300013403B627B685B7B002B07D17B7B494A6C
:101F400070339B0013445B681B697B6297F82030F9
:101F500003F00803DBB2002B32D0BA6A13796FF3B7
:101F6000451313717B685B7B002B0ED107F12403B3
:101F7000DB78C3F34113DBB21A4613465B079B1AA7
:101F8000DB0003F11802BB6A1A617B685B7B012BE3
:101F900006D1BB6A1A69BB6ADB6A1A44BB6A1A615A
:101FA000BA6A53686FF3041353602E4BD3F80432AC
:101FB0000021002098477B7B1946082000F0BEFADC
:101FC00097F8203003F00103DBB2002B33D07B689D
:101FD0005B7B002B15D1BB6A9A6ABB6ADB6AD31A9A
:101FE0007A6AC2F312029B1AFB62BB6ADA6AFB6A64
:101FF0001A44BB6ADA62BB6A5A6AFB6A1A44BB6A51
:102000005A62BB6A1A6BBB6A9B6A9A4210D1BB6A5E
:10201000DA6ABB6A1A61BA6A53686FF304135360D1
:10202000104BD3F804327A7B01211046984702E026
:10203000B86AFFF7B5FC3B6A7A7B1146184600F098
:102040007DFA7B7B01337B73FA897B7B42FA03F356
:10205000002B7FF451AF0D2000F0DCF900BF3037CA
:10206000BD4680BDF40C002080B58CB000AF786018
:10207000664BD3F8A4319B693B61644BD3F8A43120
:102080001B697B610023FB613B8A7B8100237B72A0
:10209000ADE07A897B7A42FA03F3BB81BB8903F016
:1020A0000103FB81FB89002B00F09E807B7A3422A8
:1020B00002FB03F3554A13443B627B7A534A6A336B
:1020C00052F823309B687B62504BD3F8A4315B6B92
:1020D0003A6A1278C2F30302D2B2D340DB0103F0B2
:1020E00080027B691A437B6A1340BB617B685B7B20
:1020F000002B06D17B7A454A6A3352F823301B699C
:10210000FB617B685B7B012B15D13B7E23F07F035A
:10211000DBB2002B0FD0386AFFF72AFBB8623B6AAC
:10212000DA6ABB6A1A443B6ADA623B6A5A6ABB6A79
:102130001A443B6A5A623B7E03F00103DBB2002B78
:102140004CD07B685B7B002B1DD1FA8B41F6F8737A
:1021500013409BB2002B16D1FB69C3F31203002B73
:1021600011D13B6A9A6A3B6ADB6AD31AFB623B6A0B
:10217000DA6AFB6A1A443B6ADA623B6A5A6AFB6AA9
:102180001A443B6A5A623B6A1A6B3B6A9B6A9A42E0
:1021900021D13A6A53686FF3C30353607B685B7B5A
:1021A000012B0DD1194BD3F8A431184AD2F8A42130
:1021B000516B7A7A012000FA02F2D2430A405A6344
:1021C000124BD3F804327A7A62F07F02D2B2022143
:1021D0001046984702E0386AFFF79EFCBB697A7A9E
:1021E0001146184600F092F97B7A01337B727A89A6
:1021F0007B7A42FA03F3002B7FF44BAF0E2000F002
:1022000009F900BF3037BD4680BD00BFF40C002087
:1022100080B582B000AF1E4BD3F8A0311B6A7B6043
:10222000BB79C3F34303DBB2013B052B2AD801A2E0
:1022300052F823F0852200084D220008852200086C
:102240008522000885220008692200083B79C3F333
:102250000303DBB21A46BB88C3F30A139BB21946C9
:102260001046FFF711FA0EE03B79C3F30303DBB22C
:102270001A46BB88C3F30A139BB219461046FFF7F0
:1022800003FA00E000BF00BF0837BD4680BD00BFB5
:10229000F40C002080B584B000AF7860504BD3F8C8
:1022A000A0319B69BB604E4BD3F8A0315A69BB6823
:1022B0001340FB603B7B03F00803DBB2002B07D02D
:1022C000474BD3F8003209209847092000F0A2F8C4
:1022D0007B685B7B012B19D13B7B03F01003DBB2E6
:1022E000002B13D03B7A6FF304133B723C4BD3F8B3
:1022F000A031BA689A61FFF78BFF3B7A43F0100375
:102300003B72374BD3F8A031BA689A617B7B03F0FC
:102310000403DBB2002B02D00A2000F07BF87B7BA9
:1023200003F00803DBB2002B07D02D4BD3F80032AB
:1023300006209847062000F06DF8FB7B23F07F0312
:10234000DBB2002B07D0264BD3F800320820984789
:10235000082000F05FF8FB7B03F04003DBB2002BAA
:102360000ED01F4A92F8FE3143F0040382F8FE318A
:102370001B4BD3F8003200209847002000F04AF8A9
:102380007B7B03F01003DBB2002B02D07868FFF7F1
:102390008FFC7B7B03F02003DBB2002B01D0FFF727
:1023A00053FDBB7B03F00403DBB2002B02D0786843
:1023B000FFF75AFEBB7B03F00803DBB2002B02D011
:1023C0007868FFF77DFD3B7B03F00403DBB2002B55
:1023D00001D0FFF715FD00BF1037BD4680BD00BF1F
:1023E000F40C002080B500AF034802F059FA02F067
:1023F0003DFE00BF80BD00BF8000002080B500AF63
:10240000034802F02FFA02F03FFE00BF80BD00BF7C
:102410008000002080B485B000AF0346FB7100232C
:10242000FB60FB790D2B4CD801A252F823F000BFC2
:1024300069240008C3240008C3240008C32400083A
:1024400073240008C32400087D24000887240008A2
:10245000912400089B240008A5240008AF2400084C
:10246000C3240008B9240008FB7B43F04003FB733E
:1024700028E07B7B43F010037B7323E07B7B43F0FE
:1024800008037B731EE0FB7B43F08003FB7319E0C2
:10249000FB7B43F08003FB7314E03B7B43F00803BA
:1024A0003B730FE07B7B43F004037B730AE07B7B91
:1024B00043F020037B7305E0BB7B43F00803BB7351
:1024C00000E000BF054BD3F8A031FA685A6100BFA5
:1024D0001437BD465DF8047B704700BFF40C002044
:1024E00080B485B000AF78600023FB607B68FB6040
:1024F000054BD3F8A031FA685A6000BF1437BD46C7
:102500005DF8047B704700BFF40C002080B485B0F8
:1025100000AF78600B46FB707B68FB60FB78064A77
:102520006A3352F82330FA689A6000BF1437BD4608
:102530005DF8047B704700BFF40C002080B485B0C8
:1025400000AF78600B46FB707B68FB60FB78064A47
:1025500070339B0013445B68FA689A6000BF1437BD
:10256000BD465DF8047B7047F40C002080B485B054
:1025700000AF78607B68FB60074BD3F8A431064A54
:10258000D2F8A4215169FA680A435A6100BF14378E
:10259000BD465DF8047B7047F40C002080B485B024
:1025A00000AF78607B68FB60074BD3F8A431064A24
:1025B000D2F8A4211169FA680A431A6100BF1437DE
:1025C000BD465DF8047B7047F40C002080B483B0F6
:1025D00000AF00237B603B7943F004033B713B7900
:1025E00043F008033B713B7943F002033B713B79B5
:1025F00043F001033B713B796FF345133B717B79EA
:1026000043F001037B713B7943F010033B713B794D
:1026100043F080033B713B7943F040033B717B689F
:102620006FF35F237B607B6818460C37BD465DF80F
:10263000047B704780B58AB000AF7860FFF7D2FEA8
:10264000874A7B68136000233B620CE0854A3B6A43
:10265000402142F82310844A3B6A402142F823106B
:102660003B6A01333B623B6A062BEFD94FF402729F
:1026700000217E4805F0E2F97B685B687B4AC2F87E
:1026800000327B689B68794AC2F804327B681B6819
:102690007B627B681B68754AC2F8A0317B6A03F5D0
:1026A0000063724AC2F8A43100233B620CE03B6A2B
:1026B00048335B017A6A1A446C493B6A6A3341F8D1
:1026C00023203B6A01333B623B6A062BEFD9002390
:1026D0003B620DE03B6A58335B017A6A1A446349F6
:1026E0003B6A70339B000B445A603B6A01333B6288
:1026F0003B6A062BEED900233B620CE03B6A0133B8
:102700001B037A6A1A4459493B6A783341F82320FB
:102710003B6A01333B623B6A062BEFD9534BD3F83C
:10272000A0319B68FB603B7B43F001033B733B7B29
:1027300043F080033B737B685B7B002B04D13B7BC6
:1027400043F020033B7303E03B7B6FF345133B7384
:10275000464BD3F8A031FA689A60444BD3F8A031C5
:10276000DB683B61FB7C43F04003FB747B7C43F004
:1027700001037B743D4BD3F8A0313A69DA603B4BDF
:10278000D3F8A4311B687B613B7D43F003033B75A9
:10279000BB7D6FF3C713BB75344BD3F8A4317A6993
:1027A0001A60324BD3F8A4315B68BB613B7E43F0C7
:1027B00002033B762D4BD3F8A431BA695A6010203E
:1027C000FFF728F8FFF764F8284BD3F8A031002270
:1027D0009A61264BD3F8A0314FF0FF325A610023A3
:1027E000FB613B7F43F002033B773B7F43F00403F5
:1027F0003B77FB7F43F04003FB777B7F43F0100385
:102800007B777B7F43F020037B777B7F43F0040360
:102810007B777B7F43F008037B77FB7F43F080036C
:10282000FB773B7F43F008033B777B685B7B012BA7
:1028300003D13B7F43F010033B77BB7F43F008039A
:10284000BB77BB7F43F00403BB77084BD3F8A031C1
:10285000FA699A61002318462837BD4680BD00BF3B
:10286000F00C00207808002094080020F40C0020D0
:1028700080B582B000AF0C4BD3F8A4315B687B60AD
:102880003B7943F002033B71074BD3F8A4317A68DC
:102890005A604FF402720021034805F0CFF800237C
:1028A00018460837BD4680BDF40C002080B483B0C4
:1028B00000AF0A4BD3F8A4315B687B603B796FF3C0
:1028C00041033B71054BD3F8A4317A685A60002369
:1028D00018460C37BD465DF8047B7047F40C0020A9
:1028E00080B483B000AF0A4BD3F8A4315B687B603F
:1028F0003B7943F002033B71054BD3F8A4317A686E
:102900005A60002318460C37BD465DF8047B7047BB
:10291000F40C002080B584B000AF78600023FB6029
:102920003B7B012262F3C4033B73124B93F8FE31ED
:10293000C3F30003DAB23B7B62F341033B73786875
:10294000FEF76EFE034603F00103DAB23B7B62F34F
:1029500082033B73074B93F8FE31C3F38003DAB273
:102960003B7B62F300033B73FB6818461037BD46A0
:1029700080BD00BFF40C002080B584B000AF0346DA
:102980003960FB71FB7903F00F03342202FB03F380
:102990001A4A1344FB60FB685B68C3F30013DBB2A5
:1029A000002B06D1FB681B7903F00403DBB2002B7C
:1029B00002D10123FB721CE0FB685A693B689A4212
:1029C00002D2FB685B693B60FB683A681A63FB688C
:1029D0000022DA62FB6800229A62FB68DA68FB6810
:1029E0005A62FB6800221A61F868FEF7D9FF0023DB
:1029F000FB72FB7A18461037BD4680BDF40C0020F0
:102A000080B586B000AF0346B9607A60FB73FB7B8C
:102A1000342202FB03F3174A13447B617B691A6972
:102A20007B689A4202D27B691B697B607B69DA68AA
:102A30007B699B6913447A681946B86804F000FF03
:102A40007B691A697B68D21A7B691A617B691B6989
:102A5000002B06D07B699A697B681A447B699A616E
:102A600002E07B6900229A617B6818461837BD46F0
:102A700080BD00BFF40C002080B586B000AF0346D7
:102A8000B9607A60FB73FB7B03F00F03342202FB17
:102A900003F3214A13447B617B691B7903F0040330
:102AA000DBB2002B02D101233B6130E07B695B6824
:102AB000C3F3C003DBB2012B02D100233B6126E04C
:102AC0007B691A6A7B689A4202D27B691B6A7B60C7
:102AD0007B69DB697A68B968184604F0B1FE7B69E6
:102AE000DA697B695A627B697A681A637B690022BA
:102AF0009A627B690022DA627A69536843F00803BC
:102B000053607869FFF708F87B691B6B3B613B6991
:102B100018461837BD4680BDF40C002080B485B03F
:102B200000AF03460A46FB711346BB710D4BD3F849
:102B3000A4311B68FB60BB79002B0CD1FB7903F03F
:102B40007F03DAB2BB8962F30A13BB81054BD3F86A
:102B5000A431FA681A60002318461437BD465DF8A0
:102B6000047B7047F40C002080B485B000AF0346AE
:102B70000A46FB711346BB71FB7903F00F03342245
:102B800002FB03F34A4A1344FB60BB79002B40D09D
:102B900097F90730002B1ADAFB681B78C3F303039D
:102BA000DBB2434A6A3352F823301B68BB60BB7AFE
:102BB00043F02003BB72FB681B78C3F30303DBB253
:102BC0003B4A6A3352F82330BA681A601BE0FB684C
:102BD0001B78C3F30303DBB2354A70339B00134405
:102BE0005B681B68BB60BB7A43F02003BB72FB6869
:102BF0001B78C3F30303DBB22D4A70339B001344ED
:102C00005B68BA681A60FA68137943F0200313719D
:102C100047E097F90730002B1EDAFB681B78C3F3F7
:102C20000303DBB2224A6A3352F823301B68BB60CD
:102C3000BB7A6FF34513BB72FB7A43F01003FB7250
:102C4000FB681B78C3F30303DBB2194A6A3352F8FB
:102C50002330BA681A601FE0FB681B78C3F30303D4
:102C6000DBB2134A70339B0013445B681B68BB6084
:102C7000BB7A6FF34513BB72FB7A43F01003FB7210
:102C8000FB681B78C3F30303DBB2094A70339B0074
:102C900013445B68BA681A60FA6813796FF34513D6
:102CA0001371002318461437BD465DF8047B704746
:102CB000F40C002080B485B000AF0346FB71FB79B3
:102CC00003F00F03342202FB03F31B4A1344FB609F
:102CD000FB681B7823F07F03DBB2002B04D0FA687B
:102CE00053686FF3C3035360FB681B7823F07F03C3
:102CF000DBB2002B04D1FA6853686FF304135360FE
:102D0000FA6813796FF345131371FB6800221A6197
:102D1000FB6800229A61FB6800229A62FB6800222D
:102D2000DA62FB6800221A63002318461437BD4696
:102D30005DF8047B704700BFF40C002080B586B0BE
:102D400000AF0346FB710B46BB711346BB80974B2C
:102D5000D3F8A431DB69FB60FB7903F00F03342265
:102D600002FB03F3914A13447B613422002178690A
:102D700004F064FE7B69FA791A707A69137943F07A
:102D800004031371BB88DBB203F07F03D9B27A6905
:102D9000536861F3D12353607B691B78002B07D004
:102DA0007A6993684FF6C07161F31203936005E08E
:102DB0007A699368402161F3120393607B691B7801
:102DC000C3F30303DBB21B02794A1A447B69DA615D
:102DD0007B691B78C3F30303DBB21B02754A1A44F9
:102DE0007B69DA607B691B78C3F30303DBB21A46A5
:102DF000714B53F822207B691A627B691B78C3F3FD
:102E00000303DBB21A466D4B53F822207B695A61EB
:102E10007B691B7823F07F03DBB2002B02D1BB79E7
:102E2000002B79D17B691B78C3F30303DBB25F4AC4
:102E30006A3352F823301B683B617B7C43F080038C
:102E40007B74BB7903F00303DAB2BB7C62F38303C8
:102E5000BB74BB79002B23D1BB88102B14D0102B53
:102E600002DC082B16D023E0202B07D0402B00D00B
:102E70001EE03B8A6FF30A033B8219E03B8A012282
:102E800062F30A033B8213E03B8A022262F30A03E5
:102E90003B820DE03B8A032262F30A033B8207E098
:102EA000BB88C3F30A039AB23B8A62F30A033B82EC
:102EB000FB7C43F01003FB74BB7C6FF34513BB74C6
:102EC000FEF71AFD034603F00F03D9B27A6993881F
:102ED00061F3891393807B699B88C3F38313DAB210
:102EE0007B8A62F389137B827B691B78C3F30303BC
:102EF000DBB22E4A6A3352F823303A691A60BA8933
:102F00007B691B78C3F30303DBB2194601238B40B3
:102F10009BB213439BB2BB817B691B7823F07F0379
:102F2000DBB2002B02D0BB79002B72D17B691B78FE
:102F3000C3F30303DBB21D4A70339B0013445B6889
:102F40001B683B617B7C43F080037B74BB7903F09F
:102F50000303DAB2BB7C62F38303BB74BB79002B3F
:102F60002ED1BB88102B14D0102B02DC082B16D0CE
:102F70002EE0202B07D0402B00D029E03B8A6FF3B6
:102F80000A033B8224E03B8A012262F30A033B826C
:102F90001EE03B8A022262F30A033B8218E03B8A6E
:102FA000032262F30A033B8212E000BFF40C00200C
:102FB000000700300000003094080020780800204E
:102FC000BB88C3F30A039AB23B8A62F30A033B82CB
:102FD000FB7C43F01003FB74BB7C6FF34513BB74A5
:102FE0007B691B78C3F30303DBB20F4A70339B008A
:102FF00013445B683A691A60FA897B691B78C3F3EA
:103000000303DBB2194601238B409BB213439BB2EF
:10301000FB81054BD3F8A431FA68DA610023184626
:103020001837BD4680BD00BFF40C002080B588B0C5
:1030300000AF0346FB71FB7903F00F03342202FB60
:1030400003F3544A1344BB6100233B61514BD3F853
:10305000A431DB697B61BB691B78C3F30303DBB27B
:103060001A4601239340FB61BB691B7903F00403FB
:10307000DBB2002B02D10123FB7385E07B7C6FF375
:10308000C7137B74FB7C43F04003FB74FB7C43F071
:103090000803FB74BB7C6FF34513BB74BA691379E7
:1030A0006FF382031371BA6913796FF345131371C8
:1030B000BA6953686FF304135360BA6953686FF3C6
:1030C000C3035360BB691B7823F07F03DBB2002B83
:1030D00006D1BB691B7903F00303DBB2002B12D1CD
:1030E000BB691B78C3F30303DBB22A4A6A3352F885
:1030F00023303A691A60BA8AFB699BB2DB439BB200
:1031000013409BB2BB82BB691B7823F07F03DBB209
:10311000002B06D0BB691B7903F00303DBB2002B45
:1031200023D1BB691B78C3F30303DBB2194A7033A5
:103130009B0013445B683A691A60FA8AFB699BB288
:10314000DB439BB213409BB2FB82134B1B685B7B40
:10315000012B0AD10F4BD3F8A4310E4AD2F8A42187
:10316000516BFA69D2430A405A630A4BD3F8A4312F
:103170007A69DA61BB699B88C3F38313DBB21846B3
:10318000FEF7F2FB0023FB73FB7B18462037BD469E
:1031900080BD00BFF40C0020F00C002080B483B090
:1031A00000AF084BD3F8A4319B687B607B68C3F306
:1031B0000D239BB27B807B8818460C37BD465DF89B
:1031C000047B7047F40C002080B400AF0B4B93F8E5
:1031D000FE3103F00103DBB2002B09D0074B93F85B
:1031E000FE3103F00403DBB2002B01D0012300E029
:1031F00000231846BD465DF8047B7047F40C0020A0
:1032000080B584B000AF78607A4B93F83E31C3F359
:103210004003DBB2002B14BF01230023DBB283F099
:103220000103DBB2002B40F0D480734B9B889AB231
:103230007B681B789BB29A4240F0CD806E4B5B78E6
:10324000203B032B00F2D28001A252F823F000BFF2
:10325000F13200086132000881330008A933000808
:10326000654B1B78A12B40F0B880624A92F83E3142
:103270006FF3410382F83E3100BF5E4B93F83C315F
:103280001A462C2303FB02F35A4A13440433BB604F
:10329000BB685B68C3F30013DBB2002B08D1BB68CB
:1032A0001B7903F00203DBB2002B01D0012300E005
:1032B000002303F00103DBB283F00103DBB2002B38
:1032C000DBD17B689B69184600F010FE7B681B7F92
:1032D000184600F09FFD7B685B7F184600F09AFD62
:1032E0007B689B7F184600F095FD00F0E9FC74E0D8
:1032F000414B1B78212B72D13E4A92F83E316FF33D
:10330000410382F83E3104E03C4B1B78DBB2002BDA
:1033100067D0384B93F83C311A462C2303FB02F359
:10332000344A13440433FB60FB685B68C3F3401307
:10333000DBB2002B14BF01230023DBB283F00103B7
:10334000DBB2002BE0D100F005FE02467B689A61FB
:1033500000F094FD03461A467B681A7700F08EFD54
:1033600003461A467B685A7700F088FD03461A46E2
:103370007B689A7700F058FC786800F01BFB2EE021
:103380001D4B1B78212B2ED11A4A92F83E316FF338
:10339000410382F83E31184B5B889AB27B689A826F
:1033A000786800F011FB1EE0134B1B78212B1CD119
:1033B000104A92F83E316FF3410382F83E310E4BD2
:1033C0005B889BB2DBB21946786800F007FB00BF50
:1033D0000BE000BF0AE000BF08E000BF06E000BF4E
:1033E00004E000BF02E000BF00E000BF1037BD46B0
:1033F00080BD00BFB00B0020000F0020FD0E00209C
:1034000080B582B000AF78607B6814330C22002155
:10341000184604F013FB7B6802229A717B68022233
:103420001A737B6803229A747B6802330121184661
:1034300000F0C8FD034683F00103DBB2002B01D08E
:1034400000231CE07B6808330121184600F0BAFD18
:10345000034683F00103DBB2002B01D000230EE012
:103460007B680E330121184600F0ACFD034683F063
:103470000103DBB2002B01D0002300E0012318463A
:103480000837BD4680BD000080B584B000AF7860CD
:10349000214B1B78DBB2042B39D17B689B69002B55
:1034A00035D07B689B78FB72FB7A03F00F03DAB2AE
:1034B0001A4B83F83C21FB7A23F07F03DAB2174BD7
:1034C00083F83D21154B93F83C311A462C2303FB1E
:1034D00002F3124A13440433FB60FB685B68C3F3D6
:1034E0000013DBB2002B08D1FB681B7903F0020349
:1034F000DBB2002B01D0012300E0002303F0010325
:10350000DBB2002B04D0786800F0B2F800E000BF16
:103510001037BD4680BD00BFFD0E0020B00B00205F
:1035200080B584B000AF78603960154B1B78DBB292
:10353000042B03D17B689B69002B01D102231BE084
:103540007B689B78FB73FB7B03F00F03DAB20D4BB8
:1035500083F83C21FB7B23F07F03DAB2094B83F82D
:103560003D21386804F08CFC03469BB200221946CA
:10357000386802F029FA034618461037BD4680BD68
:10358000FD0E0020B00B002080B586B000AFF860C3
:10359000B9601346FB80134B1B78DBB2042B03D1BD
:1035A000FB689B69002B01D1022317E0FB689B7825
:1035B000FB75FB7D03F00F03DAB20B4B83F83C2164
:1035C000FB7D23F07F03DAB2074B83F83D21FB88B4
:1035D00000221946B86802F0F7F903461846183772
:1035E000BD4680BDFD0E0020B00B002080B584B02C
:1035F00000AF78600B46FB701B4B1B78DBB2042BD3
:1036000003D17B689B69002B01D1022328E07B68F2
:103610009B78FB73FB7B03F00F03DAB2134B83F849
:103620003C21FB7B23F07F03DAB2104B83F83D2172
:1036300000F0BEFB034683F00103DBB2002B0AD08F
:1036400000F03EFB00F05EFA0346BB73BB7B002B31
:1036500001D0BB7B04E0FB78184600F0DBFB0023C5
:1036600018461037BD4680BDFD0E0020B00B00206F
:1036700080B584B000AF78602E4B1B78DBB2042B92
:1036800003D17B689B69002B01D102234EE07B684C
:103690009B78FB72FB7A03F00F03DAB2264B83F8B8
:1036A0003C21FB7A23F07F03DAB2234B83F83D21E0
:1036B000214B93F83C311A462C2303FB02F31E4A9C
:1036C00013440433FB60FB681B7823F07F03DBB2F9
:1036D000002B03D0FB689B699BB202E0FB689B68F0
:1036E0009BB2002B01D1002320E000F061FB0346D8
:1036F000002B14BF01230023DBB283F00103DBB2F4
:103700007B727B7A03F001037B7200F0D9FA7B7A3B
:10371000002B0AD000F0F6F90346BB72BB7A002BEF
:1037200001D0BB7A02E000F0CBFA00231846103734
:10373000BD4680BDFD0E0020B00B002080B586B0D8
:1037400000AF7860384B1B78DBB2042B03D17B6869
:103750009B69002B01D1002361E07B681B7AFB721F
:10376000FB7A03F00F03DAB2304B83F83C21FB7A8B
:1037700023F07F03DAB22D4B83F83D212B4B93F8D6
:103780003C311A462C2303FB02F3284A134404332A
:10379000FB60FB685B68C3F34013DBB2002B14BF14
:1037A00001230023DBB2002B38D0204B93F83C31AF
:1037B0001A462C2303FB02F31C4A134404333B61D7
:1037C0003B691B7823F07F03DBB2002B03D03B69FE
:1037D0009B699BB202E03B699B689BB2002B03D1C3
:1037E00000F022FA00231AE0104B93F83C311A46FD
:1037F0002C2303FB02F30D4A134404337B617B69E2
:103800001B7823F07F03DBB2002B03D07B699B691D
:103810009BB204E07B699B689BB200E000231846E2
:103820001837BD4680BD00BFFD0E0020B00B002044
:1038300080B586B000AF78603C4B1B78DBB2042BC0
:1038400003D17B689B69002B02D14FF0FF3368E006
:103850004FF6FF737B817B681B7A7B727B7A03F068
:103860000F03DAB2324B83F83C217B7A23F07F03DB
:10387000DAB22F4B83F83D212D4B93F83C311A4699
:103880002C2303FB02F32A4A13440433FB60FB6836
:103890005B68C3F34013DBB2002B14BF012300238A
:1038A000DBB2002B3BD0224B93F83C311A462C2341
:1038B00003FB02F31E4A134404333B613B691B784C
:1038C00023F07F03DBB2002B03D03B699B699BB2E3
:1038D00002E03B699B689BB2002B03D000F0CEFA5C
:1038E00003467B81124B93F83C311A462C2303FB91
:1038F00002F30F4A134404337B617B691B7823F086
:103900007F03DBB2002B03D07B699B699BB202E093
:103910007B699B689BB2002B01D100F085F9B7F958
:103920000A3018461837BD4680BD00BFFD0E002086
:10393000B00B002080B586B000AF78601A4B1B78C2
:10394000DBB2042B2CD17B689B69002B28D07B68D1
:103950009B7BFB73FB7B03F00F03DAB2134B83F803
:103960003C21FB7B23F07F03DAB2104B83F83D212F
:103970000F4A07F1100392E8030083E8030007F100
:10398000100300220821184602F01EF87B68163347
:1039900000220221184602F017F800F091F900E029
:1039A00000BF1837BD4680BDFD0E0020B00B0020C3
:1039B000F083000880B483B000AF786000BF0C379C
:1039C000BD465DF8047B704780B483B000AF78607B
:1039D00000BF0C37BD465DF8047B704780B483B0F0
:1039E00000AF78600B46FB7000BF0C37BD465DF83A
:1039F000047B704780B500AF00F002F800BF80BDC7
:103A000080B582B000AF1D4B1B78DBB2002B30D0ED
:103A10001B4B93F83D211A4B93F83C311343DBB217
:103A2000BB710022164B83F83C210022144B83F813
:103A30003D21134B93F83E31C3F34003DBB2002B1F
:103A400014BF01230023DBB2002B01D0FDF79AF84D
:103A5000BB79FB71FB7903F00F03DAB2084B83F8F3
:103A60003C21FB7923F07F03DAB2054B83F83D213B
:103A700000E000BF0837BD4680BD00BFFD0E00203E
:103A8000B00B002080B483B000AF0346FB7197F900
:103A90000730002B0BDB094997F907305B09FA79EE
:103AA00002F01F02012000FA02F241F8232000BFB9
:103AB0000C37BD465DF8047B704700BF00E100E0B5
:103AC00080B483B000AF0346FB7197F90730002B39
:103AD00010DB0B4997F907305B09FA7902F01F02F6
:103AE000012000FA02F2203341F82320BFF34F8F68
:103AF000BFF36F8F00BF0C37BD465DF8047B704786
:103B000000E100E080B586B000AF6423BB71444B98
:103B10001B689B6B984703463B81414B93F83C31B4
:103B20001A462C2303FB02F33D4A13440433FB6083
:103B3000FB681B7823F07F03DBB2802B22D1384B4C
:103B400093F83C311A462C2303FB02F3344A134406
:103B500004333B613B695B68C3F30013DBB2002BAA
:103B600008D13B691B7903F00203DBB2002B01D0C3
:103B7000012300E0002303F00103DBB2002B1AD085
:103B8000002348E0264B93F83C311A462C2303FBD4
:103B900002F3234A134404337B617B695B68C3F3FC
:103BA0004013DBB2002B14BF01230023DBB2002B38
:103BB00001D000232FE01B4B1B78FB71FB79002BFE
:103BC00001D1022327E0FB79052B01D1032322E059
:103BD000134B93F83C311946114A2C2303FB01F394
:103BE00013441B7AC3F38003DBB2002B01D0012303
:103BF00011E00B4B1B689B6B984703467B817A89CE
:103C00003B899A4289D07B893B81BB795A1EBA7124
:103C1000002B82D1042318461837BD4680BD00BF53
:103C2000B00B0020FD0E002080B582B000AF234B0A
:103C300093F83C311A462C2303FB02F31F4A13442A
:103C400004337B607B681B7903F00203DBB2002B3B
:103C50002FD01A4B1B68DB6A7A6810787A68116972
:103C60007A685269984703461A467B689A607B686F
:103C70000022DA607B685B68C3F3C003DBB2002B11
:103C800018D17B689B68002B14D17A68938843F025
:103C9000080393807A6893886FF345139380074BEA
:103CA0001B689B6A7A6810787A685269114698474F
:103CB00000E000BF0837BD4680BD00BFB00B00204C
:103CC00080B582B000AF384B93F83C311A462C23B4
:103CD00003FB02F3344A134404333B603B685B68E4
:103CE000C3F30013DBB2012B59D03B681B7903F0FF
:103CF0000203DBB2002B52D03A68938843F01003E2
:103D000093803B68DA693B689A623B689A693B68D2
:103D10005A623B6800229A616B20FFF7D1FE224B6A
:103D20001B681B6B3A6810783A68916A3A68526A65
:103D3000984778603B689A6A7B681A443B689A6245
:103D40003B685A6A7B68D21A3B685A626B20FFF75D
:103D500099FE164B1B78DBB2012B21D13B681B78F7
:103D600003F00F03DBB2002B1AD000BF3B685B6887
:103D7000C3F30013DBB2002BF8D13A68938843F009
:103D800010039380084B1B681B6B3A6810783A68E5
:103D9000916A00229847054B00221A7000E000BF8C
:103DA0000837BD4680BD00BFB00B0020B008002022
:103DB00080B483B000AF164B93F83C311A462C23E5
:103DC00003FB02F3124A134404337B600023FB70AD
:103DD0007B681B7823F07F03DBB2002B09D07B6864
:103DE0009A697B681B6A9A4234BF01230023FB70E7
:103DF00006E07B689B68002B14BF01230023FB7047
:103E0000FB7818460C37BD465DF8047B704700BF51
:103E1000B00B002080B485B000AF0346FB71164B99
:103E200093F83C311A462C2303FB02F3124A134445
:103E30000433FB600023FB72FB689A69FB681B6A12
:103E40009A420DD2FB68DA69FB689B691344FA79E0
:103E50001A70FB689B695A1CFB689A610123FB720C
:103E6000FB7A83F00103DBB2002BE5D100BF1437EE
:103E7000BD465DF8047B7047B00B002080B483B072
:103E800000AF194B93F83C311A462C2303FB02F385
:103E9000154A134404337B600023BB700023FB707E
:103EA0007B689B68002B12D07B681A697B68DB6893
:103EB00013441B78FB707B68DB685A1C7B68DA60F4
:103EC0007B689B685A1E7B689A600123BB70BB7835
:103ED00083F00103DBB2002BE2D1FB7818460C37EC
:103EE000BD465DF8047B7047B00B002080B485B000
:103EF00000AF7860164B93F83C311A462C2303FB35
:103F000002F3134A13440433FB600023FB72FB6883
:103F10009A69FB681B6A033B9A420DD2FB68DA6917
:103F2000FB689B6913447A681A60FB689B691A1DD9
:103F3000FB689A610123FB72FB7A83F00103DBB219
:103F4000002BE4D100BF1437BD465DF8047B7047F9
:103F5000B00B002080B485B000AF194B93F83C3112
:103F60001A462C2303FB02F3154A13440433FB6067
:103F70000023FB710023BB60FB689B68032B12D9F5
:103F8000FB681A69FB68DB6813441B68BB60FB684D
:103F9000DB681A1DFB68DA60FB689B681A1FFB6808
:103FA0009A600123FB71FB7983F00103DBB2002BE4
:103FB000E2D1BB6818461437BD465DF8047B7047F4
:103FC000B00B002090B585B000AF78600B46FB7059
:103FD0000023BB7392E0BA7B13465B0013445B0083
:103FE0001A467B6813441B7803F00F03FB73484B9E
:103FF0001B68DC69BA7B13465B0013445B001A46FE
:104000007B6813441878BA7B13465B0013445B004B
:104010001A467B6813441979BA7B13465B00134434
:104020005B001A467B6813445B881A46A047034628
:10403000002B01D0002367E0F97BBA7B13465B00BD
:1040400013445B001A467B6813441878304A2C23CB
:1040500003FB01F31344043302461A70F87BBA7B66
:1040600013465B0013445B001A467B6813445B886D
:10407000DBB203F07F03D9B2254A2C2303FB00F304
:104080001A44138961F38C131381FB7B204A2C2182
:1040900001FB03F31A44137A43F001031372FB7B11
:1040A0001B4A2C2101FB03F31A44137A43F0020349
:1040B0001372BA7B13465B0013445B001A467B689D
:1040C00013441B785BB2002B15DB114B1B689C6AF9
:1040D000BA7B13465B0013445B001A467B681344AB
:1040E0001878FB7B0A4A2C2101FB03F31344183395
:1040F0001B681946A047BB7B0133BB73BA7BFB78B7
:104100009A42FFF468AF012318461437BD4690BDAC
:10411000B00B002080B400AF044B9B6903F48033E4
:104120001846BD465DF8047B704700BF004600504E
:1041300080B400AF044B5B6A03F440331846BD46BD
:104140005DF8047B704700BF0046005080B400AFAC
:10415000054B9B6ADBB203F00303DBB21846BD4696
:104160005DF8047B704700BF0046005080B400AF8C
:10417000064B1A68064B1B6903F0010302FA03F3AE
:104180001846BD465DF8047B704700BFC0FF0020A5
:104190000046005080B400AF034B1B681846BD4674
:1041A0005DF8047B704700BFC0FF002080B400AF03
:1041B000034BD3F8C4301846BD465DF8047B704706
:1041C0000040005080B584B000AF786002F010FF6E
:1041D0000C4B1B680C4AA2FB03239A0C7B6802FB66
:1041E00003F37B600023FB6003E000BFFB68013347
:1041F000FB60FA687B689A42F7D300BF1037BD4670
:1042000080BD00BFC0FF002083DE1B4380B483B0AD
:1042100000AF78600549054B9A687B6813438B6053
:1042200000BF0C37BD465DF8047B704774400050FA
:1042300080B483B000AF78600649064B9A687B680B
:10424000DB4313408B6000BF0C37BD465DF8047B39
:10425000704700BF7440005080B483B000AF7860F6
:104260000549054B1A697B6813430B6100BF0C3786
:10427000BD465DF8047B70477440005080B400AFC9
:10428000034B5B681846BD465DF8047B704700BF72
:104290007440005080B483B000AF7860044A7B68FB
:1042A000D36000BF0C37BD465DF8047B704700BF8C
:1042B0007440005080B400AF044B1B6903F470637A
:1042C0001846BD465DF8047B704700BF00400050B3
:1042D00080B483B000AF0346FB80044AFB881361BF
:1042E00000BF0C37BD465DF8047B704700400050AE
:1042F00080B483B000AF7860054A7B680A339B00C6
:1043000013445B6818460C37BD465DF8047B704764
:104310000040005080B483B000AF78603960064A36
:104320007B680A339B0013443A685A6000BF0C371D
:10433000BD465DF8047B70470040005080B483B0F8
:1043400000AF786039600A49094A7B68283352F81F
:10435000232001203B6800FA03F31A437B682833CB
:1043600041F8232000BF0C37BD465DF8047B704741
:104370000040005080B483B000AF786039600B49D2
:104380000A4A7B68283352F8232001203B6800FA50
:1043900003F3DB431A407B68283341F8232000BF36
:1043A0000C37BD465DF8047B704700BF00400050ED
:1043B00080B483B000AF7860396008497B681A0127
:1043C0003B68DB02134343F40803C1F88C3000BFA1
:1043D0000C37BD465DF8047B704700BF00400050BD
:1043E00080B400AF064A064BD3F88C3023F00103AB
:1043F000C2F88C3000BFBD465DF8047B704700BF3B
:104400000040005080B400AF064A064BD3F88C3011
:1044100043F00103C2F88C3000BFBD465DF8047B59
:10442000704700BF0040005080B400AF074BD3F886
:104430008C3003F00103002B0CBF01230023DBB2FF
:104440001846BD465DF8047B704700BF0040005031
:1044500080B400AF074BD3F8903003F48043002BB7
:1044600014BF01230023DBB21846BD465DF8047B70
:10447000704700BF0040005080B582B000AF0023FD
:10448000FB71FFF7D1FF034683F00103DBB2002B82
:1044900001D00123FB7100F031F80346002B01D05D
:1044A0000223FB71064A064BD3F88C3043F002031B
:1044B000C2F88C30FB7918460837BD4680BD00BF76
:1044C0000040005080B582B000AFFFF7ADFF03465B
:1044D00083F00103DBB2002B03D06FF000437B605D
:1044E00005E0054BD3F89030C3F309037B607B688C
:1044F00018460837BD4680BD0040005080B400AF6C
:10450000074BD3F8903003F40043002B14BF012372
:104510000023DBB21846BD465DF8047B704700BF40
:104520000040005080B485B000AF786039607B688F
:104530001B0403F47023FB60FB6843F00103FB6082
:104540000A4A3B68C2F8CC30084AFB68C2F8C83057
:1045500000BF064BD3F8C43003F40053002BF8D14E
:1045600000BF1437BD465DF8047B70470040005023
:1045700080B485B000AF78607B681B0403F47023BF
:10458000FB60FB6823F00103FB600A4AFB68C2F88A
:10459000C83000BF074BD3F8C43003F40053002BDE
:1045A000F8D1044BD3F8CC3018461437BD465DF82B
:1045B000047B70470040005090B585B002AF786032
:1045C000002000F0F1FA00F07FFD7B68DB79002B22
:1045D0000AD000F075FF00BF00F060FF034683F0D3
:1045E0000103DBB2002BF7D17B685B7A184600F041
:1045F0006FFB00BFFFF7DAFD0346002BFAD17B68A3
:104600001B7A184600F00CFD7B681B7C184600F0F6
:104610007FFB7B685B7C184600F0A6FB7B689B7C7D
:10462000184600F08BFB7B68DB7C184600F0B2FB81
:104630007B689B79002B0AD000F0D6FF00BF00F00A
:10464000FBFF034683F00103DBB2002BF7D17B684D
:10465000DB78002B02D101F053F811E001F03EF8B5
:104660007B6898887B68D9787B685B781A467B681A
:104670001B781C467B689B780093234601F052F818
:104680007B68DB68B3F5803F03D14FF4803000F0E6
:104690008BFA02F0ADFC00BF0C37BD4690BD0000A8
:1046A00080B483B000AF78600649064B9A687B6897
:1046B000DB4313408B6000BF0C37BD465DF8047BC5
:1046C000704700BF6041005080B483B000AF786095
:1046D0000549054B9A687B6813438B6000BF0C3714
:1046E000BD465DF8047B70476041005080B400AF68
:1046F000034B5B681846BD465DF8047B704700BFFE
:104700006041005080B483B000AF7860044A7B6899
:10471000136100BF0C37BD465DF8047B704700BFD6
:104720006041005080B483B000AF7860044A7B6879
:10473000D36000BF0C37BD465DF8047B704700BFF7
:104740006041005080B483B000AF78600549054BEC
:104750005A697B6813434B6100BF0C37BD465DF857
:10476000047B70473C41005080B400AF034B5B6951
:104770001846BD465DF8047B704700BF3C410050C1
:1047800080B483B000AF78600549054B1A687B6838
:1047900013430B6000BF0C37BD465DF8047B7047C8
:1047A0003C41005080B483B000AF78600649064BAE
:1047B0001A687B68DB4313400B6000BF0C37BD46B3
:1047C0005DF8047B704700BF3C41005080B483B06B
:1047D00000AF78600549054B9A687B6813438B608E
:1047E00000BF0C37BD465DF8047B70473C4100506C
:1047F00080B483B000AF78600649064B9A687B6846
:10480000DB4313408B6000BF0C37BD465DF8047B73
:10481000704700BF3C41005080B483B000AF786067
:104820000549054B5A697B6813434B6100BF0C3740
:10483000BD465DF8047B70477440005080B483B07F
:1048400000AF78600649064B5A697B68DB4313402A
:104850004B6100BF0C37BD465DF8047B704700BF5D
:104860007440005080B485B000AF78607B681B0F47
:10487000BB607B6823F07043FB60BA6813465B0043
:1048800013449B001A46054B1344FA681A6000BF94
:104890001437BD465DF8047B704700BF10440050DC
:1048A00080B485B000AF78607B681B0FBB607B680D
:1048B00023F07043FB60BA6813465B0013449B000F
:1048C0001A46054B1344FA681A6000BF1437BD46F8
:1048D0005DF8047B704700BF1444005080B485B07D
:1048E00000AF78607B681B0FBB607B6823F0704370
:1048F000FB60BA6813465B0013449B001A46084BE2
:1049000013441A68FB681340002B14BF01230023D3
:10491000DBB218461437BD465DF8047B704700BF14
:104920000C44005080B584B000AF00F039F8386016
:104930001A4B1B6803F00103002B09D0174B9B682F
:1049400003F07F0301333A68B2FBF3F33B601FE0EF
:10495000124B9B681B0E03F00F0301337B600F4B60
:104960009B681B0A03F07F030133BB600B4B9B6802
:104970001B0C03F07F030133FB603B68BA6802FB4A
:1049800003F27B68F96801FB03F3B2FBF3F33B60CE
:104990003B6818461037BD4680BD00BF1047005029
:1049A00080B582B000AF084BDB6803F00103002B39
:1049B00003D102F087FB786001E0044B7B607B68E9
:1049C00018460837BD4680BD1047005000366E01BE
:1049D00080B584B000AF02F075FB7860104B1B69A6
:1049E00003F00103002B16D10D4B5B691B0A03F08A
:1049F0007F030133BB600A4B5B691B0E03F00F039F
:104A00000133FB607B68BA6802FB03F2FB685B0062
:104A1000B2FBF3F37B607B6818461037BD4680BD60
:104A20001047005080B582B000AF00237B60FFF7D5
:104A30009DFB7860054B1B6A03F001037A6822FA3C
:104A400003F318460837BD4680BD00BF004600503E
:104A500080B582B000AF00233B60FFF75BFB78605E
:104A60007B68B3F5803F03D1FFF75CFF386005E05A
:104A70007B68002B02D1FFF7ABFF3860054B9B69C9
:104A800003F0070301333A68B2FBF3F31846083723
:104A9000BD4680BD0046005080B582B000AFFFF734
:104AA00041FF7860054BDB6903F03F0301337A680F
:104AB000B2FBF3F318460837BD4680BD00460050F0
:104AC00080B582B000AF00233B60FFF731FB786018
:104AD0007B68B3F5003F03D1FFF724FF38600CE09B
:104AE0007B68002B02D10A4B3B6006E07B68B3F584
:104AF000803F02D14FF400433B60064B5B6ADBB260
:104B000001333A68B2FBF3F318460837BD4680BD5F
:104B100000366E010046005080B582B000AF002321
:104B20007B60FFF713FB0346FB70FB78032B0DD173
:104B3000FFF7F8FE7860134B9B6A1B0CC3F3080366
:104B400001337A68B2FBF3F37B6016E0FB78002B4D
:104B500003D1FFF70BFB78600FE0FB78022B0CD141
:104B6000FFF736FF7860074B9B6A1B0CC3F3080303
:104B700001337A68B2FBF3F37B607B681846083731
:104B8000BD4680BD0046005080B500AFFFF702FB78
:104B90000246044B5B6903F0010322FA03F3184653
:104BA00080BD00BF0046005080B483B000AF786085
:104BB0000649064BDB6823F480327B681343CB60E5
:104BC00000BF0C37BD465DF8047B704700460050BF
:104BD00080B483B000AF78600649064B9B6923F42C
:104BE00080327B6813438B6100BF0C37BD465DF894
:104BF000047B70470046005080B483B000AF7860FB
:104C00000649064B5B6A23F440327B6813434B62D0
:104C100000BF0C37BD465DF8047B7047004600506E
:104C200080B483B000AF0346FB710749064B9B6A13
:104C300023F00302FB7913438B6200BF0C37BD46A0
:104C40005DF8047B704700BF0046005080B483B01D
:104C500000AF0346FB80FB88002B08D10B4A0B4BAF
:104C6000DB6823F4807323F00103D36007E0074A75
:104C7000064BDB6843F4807343F00103D36000BF4D
:104C80000C37BD465DF8047B704700BF10470050ED
:104C900080B483B000AF0346FB7100BF0A4BD3F86A
:104CA000C43003F00803002BF8D10849074BDB6838
:104CB00023F04002FB791343CB6000BF0C37BD46A5
:104CC0005DF8047B704700BF004000500043005077
:104CD00080B483B000AF0346FB7100BF0A4BD3F82A
:104CE000C43003F00803002BF8D10849074BDB68F8
:104CF00023F08002FB791343CB6000BF0C37BD4625
:104D00005DF8047B704700BF004000500043005036
:104D100080B483B000AF78600749074BDB6823F0AD
:104D2000FF027B68013B1343CB6000BF0C37BD46DD
:104D30005DF8047B704700BF0046005080B483B02C
:104D400000AF78600749074B1B6A23F001027B68BC
:104D5000013B13430B6200BF0C37BD465DF8047B7B
:104D6000704700BF0046005080B483B000AF786049
:104D70000749074B1B6923F001027B68013B134382
:104D80000B6100BF0C37BD465DF8047B704700BF68
:104D90000046005080B483B000AF78600749074BED
:104DA0005B6923F001027B68013B13434B6100BF49
:104DB0000C37BD465DF8047B704700BF00460050CD
:104DC00080B483B000AF78600749074B9B6923F03C
:104DD00007027B68013B13438B6100BF0C37BD4664
:104DE0005DF8047B704700BF0046005080B483B07C
:104DF00000AF78600749074BDB6923F03F027B680F
:104E0000013B1343CB6100BF0C37BD465DF8047B0B
:104E1000704700BF0046005080B483B000AF786098
:104E20000749074B5B6A23F0FF027B68013B134392
:104E30004B6200BF0C37BD465DF8047B704700BF76
:104E40000046005080B483B000AF78600849084B3A
:104E50009B6A23F0FF7323F480337A68013A1204CB
:104E600013438B6200BF0C37BD465DF8047B70476F
:104E70000046005080B483B000AF0346FB71044A83
:104E8000FB79536000BF0C37BD465DF8047B70476B
:104E90000046005080B483B000AF0346FB71044A63
:104EA000FB79936000BF0C37BD465DF8047B70470B
:104EB0000046005080B483B000AF0346FB71074B3F
:104EC0001A68FB791340002B14BF01230023DBB2C7
:104ED00018460C37BD465DF8047B7047004600500D
:104EE00080B400AF084B5B69DBB207EE903AF8EE96
:104EF000677A9FED067A67EE877A17EE903A184642
:104F0000BD465DF8047B704700420050ED0DBE3B8E
:104F100080B400AF094B5B691B0ADBB207EE903A25
:104F2000F8EE677A9FED067A67EE877A17EE903A89
:104F30001846BD465DF8047B704700BF0042005034
:104F4000EC51B83C80B400AF064A064B5B6923F4D1
:104F5000803323F00203536100BFBD465DF8047B3C
:104F6000704700BF1047005080B400AF064A064BA0
:104F70005B6943F4803343F00203536100BFBD46D5
:104F80005DF8047B704700BF1047005080B483B0C9
:104F900000AF786039601A4A194B5B6943F001032E
:104FA0005361174A164B5B6943F010035361144970
:104FB0003B68013B1A027B68013B1B0613434B61B4
:104FC0000F4A0F4B5B6943F0400353610C4A0C4B93
:104FD0005B6923F010035361094A094B5B6943F491
:104FE0008023536100BF064B1B6903F00403002BB1
:104FF000F9D000BF0C37BD465DF8047B704700BF99
:105000001047005080B400AF034B044A5A6100BF00
:10501000BD465DF8047B7047104700500300010057
:1050200080B582B000AF0346FB710F4A0E4B5B6840
:1050300043F480135360FB79012B0ED10A4A0A4BCB
:105040005B6823F4801353606420FFF7BBF8064AC3
:10505000054B5B6843F4002353606420FFF7B2F80C
:1050600000BF0837BD4680BD1047005080B400AF78
:10507000044B4FF440325A6000BFBD465DF8047BDC
:10508000704700BF0042005080B400AF044B4FF4A3
:1050900040329A6000BFBD465DF8047B704700BF98
:1050A0000042005080B400AF064B1B6903F00403BC
:1050B000002B14BF01230023DBB21846BD465DF868
:1050C000047B70471047005080B400AF124B1B6840
:1050D00003F00103002B09D10F4B01225A6000BFDE
:1050E0000D4B1B6803F00103002BF9D00B4B1B6821
:1050F00003F40073002B0AD0084B4FF400729A603F
:1051000000BF064B1B6803F40073002BF9D100BFEE
:10511000BD465DF8047B70470042005000440050DB
:1051200080B400AF054B01229A60054B4FF400722A
:105130005A6000BFBD465DF8047B704700420050D6
:105140000044005080B400AF0B4B1B6803F0010318
:10515000002B07D0094B1B6803F40073002B01D10F
:10516000012300E0002303F00103DBB21846BD4633
:105170005DF8047B704700BF0042005000440050BF
:1051800080B400AF00BF094BD3F8C43003F0200354
:10519000002BF8D1064A064B5B6923F001035361EB
:1051A00000BFBD465DF8047B704700BF0040005063
:1051B0000043005080B400AF00BF094BD3F8C430A7
:1051C00003F02003002BF8D1064A064B5B6943F03D
:1051D0000103536100BFBD465DF8047B704700BF0B
:1051E000004000500043005080B483B000AF7860AE
:1051F00000BF084BD3F8C43003F00203002BF8D1F2
:10520000054A7B68536000BF0C37BD465DF8047BE0
:10521000704700BF004000500043005080B483B08E
:1052200000AF786000BF084BD3F8C43003F004032C
:10523000002BF8D1054A7B68936000BF0C37BD4650
:105240005DF8047B704700BF0040005000430050F1
:1052500080B483B000AF786000BF094BD3F8C4308E
:1052600003F00803002BF8D10649064BDA687B6887
:105270001343CB6000BF0C37BD465DF8047B70471D
:10528000004000500043005080B483B000AF78600D
:1052900000BF0A4BD3F8C43003F00803002BF8D149
:1052A0000749074BDB687A68D2431340CB6000BFE5
:1052B0000C37BD465DF8047B704700BF00400050CE
:1052C0000043005080B400AF00BF094BD3F8C43096
:1052D00003F00803002BF8D1064A064BDB6843F0C5
:1052E0001003D36000BFBD465DF8047B704700BF6C
:1052F000004000500043005080B582B000AF03462C
:10530000FB71FB79002B01D1FFF7DCFF00BF0837F1
:10531000BD4680BD80B483B000AF0346FB7100BFC3
:105320000E4BD3F8C43003F00803002BF8D1FB79FF
:10533000002B06D10A4A0A4BDB6843F48073D36022
:1053400005E0074A064BDB6823F48073D36000BF97
:105350000C37BD465DF8047B704700BF004000502D
:105360000043005080B483B000AF03463960FB7146
:1053700000BF0F4BD3F8C43003F00803002BF8D163
:105380000C480C4BDA68FB799B004FF4702101FA52
:1053900003F3DB431A40FB799B00396801FA03F3FE
:1053A0001343C36000BF0C37BD465DF8047B7047F4
:1053B000004000500043005080B483B000AF03466B
:1053C0000A46FB711346BB8000BF0E4BD3F8C430B6
:1053D00003F00803002BF8D10B480B4BDA68FB797C
:1053E0004FF4805101FA03F3DB431340B988FA7993
:1053F00001FA02F21343C36000BF0C37BD465DF8EB
:10540000047B7047004000500043005080B483B0DC
:1054100000AF0346FB7100BF0E4BD3F8C43003F05E
:105420000803002BF8D1FB79002B06D10A4A0A4B5E
:10543000DB6843F48063D36005E0074A064BDB6812
:1054400023F48063D36000BF0C37BD465DF8047B56
:10545000704700BF004000500043005080B483B04C
:1054600000AF0346FB8000BF0A4BD3F8C43003F003
:105470000803002BF8D10849074BDB6823F480624E
:10548000FB881343CB6000BF0C37BD465DF8047B3F
:10549000704700BF004000500043005080B400AF90
:1054A000064B1B6803F00803002B0CBF01230023ED
:1054B000DBB21846BD465DF8047B704700430050E0
:1054C00080B500AF00BF174BD3F8C43003F08003A2
:1054D000002BF8D1144A144BDB6923F03003D3615D
:1054E00000BF104BD3F8C43003F00803002BF8D1F1
:1054F0000D4A0D4BDB6843F00803D36000BF094B36
:10550000D3F8C43003F00403002BF8D1064B082273
:105510009A6000BFFEF74AFE0346002BFAD100BF97
:1055200080BD00BF004000500043005080B400AF79
:1055300000BF094BD3F8C43003F08003002BF8D12F
:10554000064A064BDB6943F03003D36100BFBD461A
:105550005DF8047B704700BF0040005000430050DE
:1055600080B400AF00BF094BD3F8C43003F0800310
:10557000002BF8D1064A064BDB6943F03103D361B7
:1055800000BFBD465DF8047B704700BF004000507F
:105590000043005080B400AF00BF0A4BD3F8C430C2
:1055A00003F08003002BF8D1074A074BDB6923F097
:1055B000310343F02003D36100BFBD465DF8047B97
:1055C000704700BF004000500043005080B400AF5F
:1055D000044B9B6903F001031846BD465DF8047B4C
:1055E000704700BF00430050B0B500AF0F4A0F4BEB
:1055F0005B6823F4803353600D4D0D4B5B6823F4DF
:10560000702424F0300401F05DFD0246094BA3FB39
:1056100002231B0D013B1B0423436B60034A034B16
:105620005B6823F40033536000BFB0BD10470050E7
:10563000004700506BCA5F6B80B400AF074B1B681C
:1056400003F46073B3F5607F0CBF01230023DBB26A
:105650001846BD465DF8047B704700BF10470050F8
:1056600080B400AF054A054B5B6843F030035360DC
:1056700000BFBD465DF8047B704700BF0047005087
:1056800080B400AF054A054B5B6843F001035360EB
:1056900000BFBD465DF8047B704700BF0047005067
:1056A00080B400AF054A054B5B6823F001035360EB
:1056B00000BFBD465DF8047B704700BF0047005047
:1056C00080B400AF044B1B6803F001031846BD46CD
:1056D0005DF8047B704700BF0047005080B400AF06
:1056E000064A064B5B6823F4803323F002035360C1
:1056F00000BFBD465DF8047B704700BF10470050F7
:1057000080B400AF064A064B5B6843F4803343F035
:105710000203536000BFBD465DF8047B704700BFC5
:105720001047005080B586B000AFBA607B6003467A
:10573000FB810B467B73FB891846FFF787FA7B7B5F
:10574000012B40F08480FB89002B09D101F0BAFCC9
:1057500002464C4BA3FB02239B0C9B053B6102E0E2
:105760004FF0C0633B613B697A6802FB03F2BB68A0
:10577000B2FBF3F33B613B69434AA2FB03231B09E2
:105780009B0D7B61414A414B5B6843F001035360D1
:105790003E4A3E4B5B6843F0100353603B493B4B32
:1057A0009A683B4B13407A68013A12021A437B69AC
:1057B000013B1B041A43BB68013B1B0613438B6070
:1057C000324A324B5B6843F0400353602F4A2F4B01
:1057D0005B6823F0100353602C4A2C4B5B6843F446
:1057E0008023536000BF294B1B6803F00403002B88
:1057F000F9D0264A254B5B6823F00103536000BFB4
:10580000224B1B6803F00103002BF9D13B69214AAD
:10581000A2FB03235B099B0D7B613A6A7B699A4279
:1058200002D2786900F04AF83B695B081A4AA2FB89
:1058300003235B099B0D7B613A6A7B699A4202D222
:10584000786900F03BF8386A00F038F815E00F4945
:105850000E4B9B6823F07F023B6A013B13438B6036
:105860000A4A0A4B5B6843F00103536000BF074BD1
:105870001B6803F00103002BF9D000BF1837BD46A9
:1058800080BD00BF83DE1B43ABAAAAAA104700500D
:10589000FF8080F089888888B7600BB680B400AF3D
:1058A000054A054B5B6843F48033536000BFBD4637
:1058B0005DF8047B704700BF1047005080B582B090
:1058C00000AF78600849084B9B6823F4FE027B68B0
:1058D000013B1B0413438B603220FEF773FC00BFB7
:1058E0000837BD4680BD00BF1047005080B400AFF0
:1058F000064B1B6803F00403002B14BF0123002395
:10590000DBB21846BD465DF8047B70471047005077
:1059100080B485B000AF786039600023FB6002E09E
:10592000FB680133FB607A68FB6822FA03F303F03B
:105930000103002B02D1FB681F2BF1D9FB68202B40
:1059400002D10123FB7206E00649FB683A6841F880
:1059500023200023FB72FB7A18461437BD465DF8FE
:10596000047B7047080F002080B586B000AF7860D8
:105970000023FB60FEF782FC38611CE03A69FB689B
:1059800022FA03F303F00103002B11D00D4AFB6848
:1059900052F823307B617B69002B01D07B699847EB
:1059A0000122FB6802FA03F31846FEF773FC05E0D8
:1059B000FB680133FB60FB681F2BDFD900BF183782
:1059C000BD4680BD080F002080B588B000AFF860EC
:1059D0000B467A607B813F4B93F83C311A462C236F
:1059E00003FB02F33B4A13440433FB6100237B8334
:1059F0000023FB8200233B837B68002B52D07B6813
:105A00001B887A89D31A7B817B681B88FB8249E0DB
:105A1000FB695B68C3F30013DBB2002B00D041E0ED
:105A2000FEF7C6F90346002B29D0FB691A6AFB6909
:105A30009B69D21A7B89934228BF13467B83FB69FB
:105A4000DB691A46FB699B6913441846FA8AFB68AE
:105A5000134419467B8B1A4600F0C0FAFB699A6919
:105A60007B8B1A44FB699A61FA8A7B8B1344FB8215
:105A70007B893B837A897B8BD31A7B8112E0FEF78B
:105A80001FF97B68002B04D07B68FA8A1A800523F3
:105A90001BE0FEF737F803467B757B7D002B01D0BA
:105AA0007B7D12E07B89002BB2D17B89002B0BD14F
:105AB000FB699B88C3F38613DBB29BB23A8B9A4295
:105AC00002D1054B01221A70002318462037BD462B
:105AD00080BD00BFB00B0020B008002080B487B0AC
